{
  "contractName": "Ownable",
  "abi": [
    {
      "inputs": [],
      "stateMutability": "nonpayable",
      "type": "constructor"
    },
    {
      "anonymous": false,
      "inputs": [
        {
          "indexed": false,
          "internalType": "address",
          "name": "_previousOwner",
          "type": "address"
        },
        {
          "indexed": false,
          "internalType": "address",
          "name": "_newOwner",
          "type": "address"
        },
        {
          "indexed": false,
          "internalType": "uint256",
          "name": "time",
          "type": "uint256"
        }
      ],
      "name": "OwnerChanged",
      "type": "event"
    },
    {
      "inputs": [],
      "name": "owner",
      "outputs": [
        {
          "internalType": "address",
          "name": "",
          "type": "address"
        }
      ],
      "stateMutability": "view",
      "type": "function",
      "constant": true
    },
    {
      "inputs": [],
      "name": "getOwner",
      "outputs": [
        {
          "internalType": "address",
          "name": "",
          "type": "address"
        }
      ],
      "stateMutability": "view",
      "type": "function",
      "constant": true
    },
    {
      "inputs": [
        {
          "internalType": "address",
          "name": "_addr",
          "type": "address"
        }
      ],
      "name": "changeOwner",
      "outputs": [],
      "stateMutability": "nonpayable",
      "type": "function"
    }
  ],
  "bytecode": "0x608060405234801561001057600080fd5b50336000806101000a81548173ffffffffffffffffffffffffffffffffffffffff021916908373ffffffffffffffffffffffffffffffffffffffff1602179055506103da806100606000396000f3fe608060405234801561001057600080fd5b50600436106100415760003560e01c8063893d20e8146100465780638da5cb5b14610064578063a6f9dae114610082575b600080fd5b61004e61009e565b60405161005b9190610238565b60405180910390f35b61006c6100c7565b6040516100799190610238565b60405180910390f35b61009c60048036038101906100979190610284565b6100eb565b005b60008060009054906101000a900473ffffffffffffffffffffffffffffffffffffffff16905090565b60008054906101000a900473ffffffffffffffffffffffffffffffffffffffff1681565b3373ffffffffffffffffffffffffffffffffffffffff1660008054906101000a900473ffffffffffffffffffffffffffffffffffffffff1673ffffffffffffffffffffffffffffffffffffffff1614610179576040517f08c379a000000000000000000000000000000000000000000000000000000000815260040161017090610334565b60405180910390fd5b806000806101000a81548173ffffffffffffffffffffffffffffffffffffffff021916908373ffffffffffffffffffffffffffffffffffffffff1602179055507f4c37b24b600916176446859ec41fb06842ec1dfaeeb0bee28784b51f24b8c3083382426040516101ec9392919061036d565b60405180910390a150565b600073ffffffffffffffffffffffffffffffffffffffff82169050919050565b6000610222826101f7565b9050919050565b61023281610217565b82525050565b600060208201905061024d6000830184610229565b92915050565b600080fd5b61026181610217565b811461026c57600080fd5b50565b60008135905061027e81610258565b92915050565b60006020828403121561029a57610299610253565b5b60006102a88482850161026f565b91505092915050565b600082825260208201905092915050565b7f496e76616c6964206f6e6c79206f776e65722063616e2061636365737320746860008201527f69732066756e6374696f6e000000000000000000000000000000000000000000602082015250565b600061031e602b836102b1565b9150610329826102c2565b604082019050919050565b6000602082019050818103600083015261034d81610311565b9050919050565b6000819050919050565b61036781610354565b82525050565b60006060820190506103826000830186610229565b61038f6020830185610229565b61039c604083018461035e565b94935050505056fea2646970667358221220c64267c60d811957bc47d1bfd35f1abc0eaddcb678094c00881796d8bb4b523264736f6c634300080d0033",
  "immutableReferences": {},
  "source": "// SPDX-License-Identifier: GPL-3.0\r\n\r\npragma solidity ^0.8.0;\r\n\r\ncontract Ownable{\r\n    address public owner;\r\n\r\n    event OwnerChanged(\r\n        address _previousOwner,\r\n        address _newOwner,\r\n        uint256 time\r\n    );\r\n\r\n    modifier onlyOwner() {\r\n        require(owner == msg.sender, \"Invalid only owner can access this function\");\r\n        _;\r\n    }\r\n\r\n    constructor(){\r\n        owner = msg.sender;\r\n    }\r\n\r\n    function getOwner() public view returns(address){\r\n        return owner;\r\n    }\r\n\r\n    function changeOwner(address _addr) public virtual onlyOwner{\r\n        owner = _addr;\r\n        emit OwnerChanged(msg.sender, _addr, block.timestamp);\r\n    }\r\n}",
  "sourcePath": "C:/Users/Toshiba/Documents/Hiresh Personal Work/Programming/blockchain/tokenSwap/contracts/ownable.sol",
  "compiler": {
    "name": "solc",
    "version": "0.8.13+commit.abaa5c0e.Emscripten.clang"
  },
  "schemaVersion": "3.3.4",
  "updatedAt": "2022-04-30T20:15:34.195Z",
  "networkType": "ethereum",
  "devdoc": {
    "kind": "dev",
    "methods": {},
    "version": 1
  },
  "userdoc": {
    "kind": "user",
    "methods": {},
    "version": 1
  }
}