{
  "contractName": "TimeManager",
  "abi": [
    {
      "inputs": [
        {
          "internalType": "uint256",
          "name": "_addTime",
          "type": "uint256"
        }
      ],
      "name": "createDeadline",
      "outputs": [
        {
          "internalType": "uint256",
          "name": "",
          "type": "uint256"
        }
      ],
      "stateMutability": "view",
      "type": "function"
    }
  ],
  "bytecode": "0x608060405234801561001057600080fd5b506101ca806100206000396000f3fe608060405234801561001057600080fd5b506004361061002b5760003560e01c8063a680503114610030575b600080fd5b61004a600480360381019061004591906100b8565b610060565b60405161005791906100f4565b60405180910390f35b6000804290508281610072919061013e565b905080915050919050565b600080fd5b6000819050919050565b61009581610082565b81146100a057600080fd5b50565b6000813590506100b28161008c565b92915050565b6000602082840312156100ce576100cd61007d565b5b60006100dc848285016100a3565b91505092915050565b6100ee81610082565b82525050565b600060208201905061010960008301846100e5565b92915050565b7f4e487b7100000000000000000000000000000000000000000000000000000000600052601160045260246000fd5b600061014982610082565b915061015483610082565b9250827fffffffffffffffffffffffffffffffffffffffffffffffffffffffffffffffff038211156101895761018861010f565b5b82820190509291505056fea2646970667358221220de3d6dda54daae3fe83e6950124b6b71ee1f4a104a47924f51bc643055140f3f64736f6c634300080d0033",
  "immutableReferences": {},
  "source": "// SPDX-License-Identifier: GPL-3.0\r\n\r\npragma solidity ^0.8.0;\r\n\r\ncontract TimeManager{\r\n    \r\n    function createDeadline(uint256 _addTime) public virtual view returns(uint256) {\r\n        uint256 currentTime = block.timestamp;\r\n        return currentTime += _addTime;\r\n    }\r\n    \r\n}\r\n",
  "sourcePath": "C:/Users/Toshiba/Documents/Hiresh Personal Work/Programming/blockchain/tokenSwap/contracts/time.sol",
  "compiler": {
    "name": "solc",
    "version": "0.8.13+commit.abaa5c0e.Emscripten.clang"
  },
  "schemaVersion": "3.3.4",
  "updatedAt": "2022-04-30T20:15:34.204Z",
  "networkType": "ethereum",
  "devdoc": {
    "kind": "dev",
    "methods": {},
    "version": 1
  },
  "userdoc": {
    "kind": "user",
    "methods": {},
    "version": 1
  }
}