{
  "contractName": "TokenSwap",
  "abi": [
    {
      "anonymous": false,
      "inputs": [
        {
          "indexed": false,
          "internalType": "address",
          "name": "_previousOwner",
          "type": "address"
        },
        {
          "indexed": false,
          "internalType": "address",
          "name": "_newOwner",
          "type": "address"
        },
        {
          "indexed": false,
          "internalType": "uint256",
          "name": "time",
          "type": "uint256"
        }
      ],
      "name": "OwnerChanged",
      "type": "event"
    },
    {
      "inputs": [
        {
          "internalType": "address",
          "name": "",
          "type": "address"
        }
      ],
      "name": "addrToUserId",
      "outputs": [
        {
          "internalType": "uint256",
          "name": "",
          "type": "uint256"
        }
      ],
      "stateMutability": "view",
      "type": "function",
      "constant": true
    },
    {
      "inputs": [
        {
          "internalType": "address",
          "name": "_addr",
          "type": "address"
        }
      ],
      "name": "changeOwner",
      "outputs": [],
      "stateMutability": "nonpayable",
      "type": "function"
    },
    {
      "inputs": [
        {
          "internalType": "uint256",
          "name": "_addTime",
          "type": "uint256"
        }
      ],
      "name": "createDeadline",
      "outputs": [
        {
          "internalType": "uint256",
          "name": "",
          "type": "uint256"
        }
      ],
      "stateMutability": "view",
      "type": "function",
      "constant": true
    },
    {
      "inputs": [],
      "name": "getOwner",
      "outputs": [
        {
          "internalType": "address",
          "name": "",
          "type": "address"
        }
      ],
      "stateMutability": "view",
      "type": "function",
      "constant": true
    },
    {
      "inputs": [
        {
          "internalType": "uint256",
          "name": "",
          "type": "uint256"
        }
      ],
      "name": "idToUser",
      "outputs": [
        {
          "internalType": "uint256",
          "name": "id",
          "type": "uint256"
        },
        {
          "internalType": "address",
          "name": "addr",
          "type": "address"
        },
        {
          "internalType": "uint256",
          "name": "tokenId",
          "type": "uint256"
        }
      ],
      "stateMutability": "view",
      "type": "function",
      "constant": true
    },
    {
      "inputs": [],
      "name": "owner",
      "outputs": [
        {
          "internalType": "address",
          "name": "",
          "type": "address"
        }
      ],
      "stateMutability": "view",
      "type": "function",
      "constant": true
    },
    {
      "inputs": [],
      "name": "getContractOwner",
      "outputs": [
        {
          "internalType": "address",
          "name": "",
          "type": "address"
        }
      ],
      "stateMutability": "view",
      "type": "function",
      "constant": true
    },
    {
      "inputs": [],
      "name": "readString",
      "outputs": [
        {
          "internalType": "string",
          "name": "",
          "type": "string"
        }
      ],
      "stateMutability": "view",
      "type": "function",
      "constant": true
    },
    {
      "inputs": [],
      "name": "returnNumber",
      "outputs": [
        {
          "internalType": "uint256",
          "name": "",
          "type": "uint256"
        }
      ],
      "stateMutability": "view",
      "type": "function",
      "constant": true
    },
    {
      "inputs": [
        {
          "internalType": "address",
          "name": "_tokenAddr",
          "type": "address"
        },
        {
          "internalType": "uint256",
          "name": "_tokenId1",
          "type": "uint256"
        },
        {
          "internalType": "uint256",
          "name": "_tokenId2",
          "type": "uint256"
        }
      ],
      "name": "setPair",
      "outputs": [],
      "stateMutability": "nonpayable",
      "type": "function"
    },
    {
      "inputs": [
        {
          "internalType": "address",
          "name": "_tokenAddr",
          "type": "address"
        },
        {
          "internalType": "uint256",
          "name": "_tokenId",
          "type": "uint256"
        }
      ],
      "name": "authoriseSwap",
      "outputs": [],
      "stateMutability": "nonpayable",
      "type": "function"
    },
    {
      "inputs": [
        {
          "internalType": "address",
          "name": "_tokenAddr",
          "type": "address"
        },
        {
          "internalType": "uint256",
          "name": "_tokenId1",
          "type": "uint256"
        },
        {
          "internalType": "uint256",
          "name": "_tokenId2",
          "type": "uint256"
        }
      ],
      "name": "swapTokens",
      "outputs": [],
      "stateMutability": "nonpayable",
      "type": "function"
    }
  ],
  "bytecode": "0x608060405234801561001057600080fd5b50336000806101000a81548173ffffffffffffffffffffffffffffffffffffffff021916908373ffffffffffffffffffffffffffffffffffffffff160217905550611114806100606000396000f3fe608060405234801561001057600080fd5b50600436106100b45760003560e01c80638dc22cba116100715780638dc22cba1461017d57806396b195b6146101af578063a6805031146101cb578063a6f9dae1146101fb578063fb41f98e14610217578063ff729cff14610233576100b4565b80633450bd6a146100b957806334d52999146100d7578063442890d514610107578063893d20e8146101255780638b2c1c7c146101435780638da5cb5b1461015f575b600080fd5b6100c1610251565b6040516100ce9190610b08565b60405180910390f35b6100f160048036038101906100ec9190610b86565b61025a565b6040516100fe9190610b08565b60405180910390f35b61010f610272565b60405161011c9190610bc2565b60405180910390f35b61012d610281565b60405161013a9190610bc2565b60405180910390f35b61015d60048036038101906101589190610c09565b6102aa565b005b610167610386565b6040516101749190610bc2565b60405180910390f35b61019760048036038101906101929190610c49565b6103aa565b6040516101a693929190610c76565b60405180910390f35b6101c960048036038101906101c49190610cad565b6103f4565b005b6101e560048036038101906101e09190610c49565b610623565b6040516101f29190610b08565b60405180910390f35b61021560048036038101906102109190610b86565b610640565b005b610231600480360381019061022c9190610cad565b61074c565b005b61023b610769565b6040516102489190610d99565b60405180910390f35b6000600a905090565b60046020528060005260406000206000915090505481565b600061027c610281565b905090565b60008060009054906101000a900473ffffffffffffffffffffffffffffffffffffffff16905090565b6001600260003373ffffffffffffffffffffffffffffffffffffffff1673ffffffffffffffffffffffffffffffffffffffff16815260200190815260200160002060006101000a81548160ff02191690831515021790555061030f60015433836107a6565b60008290508073ffffffffffffffffffffffffffffffffffffffff1663095ea7b330846040518363ffffffff1660e01b815260040161034f929190610dbb565b600060405180830381600087803b15801561036957600080fd5b505af115801561037d573d6000803e3d6000fd5b50505050505050565b60008054906101000a900473ffffffffffffffffffffffffffffffffffffffff1681565b60056020528060005260406000206000915090508060000154908060010160009054906101000a900473ffffffffffffffffffffffffffffffffffffffff16908060020154905083565b82600073ffffffffffffffffffffffffffffffffffffffff168173ffffffffffffffffffffffffffffffffffffffff1603610464576040517f08c379a000000000000000000000000000000000000000000000000000000000815260040161045b90610e30565b60405180910390fd5b61046e8484610959565b60011515600260008373ffffffffffffffffffffffffffffffffffffffff1673ffffffffffffffffffffffffffffffffffffffff16815260200190815260200160002060009054906101000a900460ff16151514610501576040517f08c379a00000000000000000000000000000000000000000000000000000000081526004016104f890610e9c565b60405180910390fd5b61050b8584610959565b60011515600260008373ffffffffffffffffffffffffffffffffffffffff1673ffffffffffffffffffffffffffffffffffffffff16815260200190815260200160002060009054906101000a900460ff1615151461059e576040517f08c379a000000000000000000000000000000000000000000000000000000000815260040161059590610e9c565b60405180910390fd5b83600360008781526020019081526020016000205414806105d15750846003600086815260200190815260200160002054145b610610576040517f08c379a000000000000000000000000000000000000000000000000000000000815260040161060790610f2e565b60405180910390fd5b61061b8686866109e2565b505050505050565b60008042905082816106359190610f7d565b905080915050919050565b3373ffffffffffffffffffffffffffffffffffffffff1660008054906101000a900473ffffffffffffffffffffffffffffffffffffffff1673ffffffffffffffffffffffffffffffffffffffff16146106ce576040517f08c379a00000000000000000000000000000000000000000000000000000000081526004016106c590611045565b60405180910390fd5b806000806101000a81548173ffffffffffffffffffffffffffffffffffffffff021916908373ffffffffffffffffffffffffffffffffffffffff1602179055507f4c37b24b600916176446859ec41fb06842ec1dfaeeb0bee28784b51f24b8c30833824260405161074193929190611065565b60405180910390a150565b806003600084815260200190815260200160002081905550505050565b60606040518060400160405280601081526020017f486972657368204272656d616e616e6400000000000000000000000000000000815250905090565b6001836107b39190610f7d565b9250600660405180606001604052808581526020018473ffffffffffffffffffffffffffffffffffffffff1681526020018381525090806001815401808255809150506001900390600052602060002090600302016000909190919091506000820151816000015560208201518160010160006101000a81548173ffffffffffffffffffffffffffffffffffffffff021916908373ffffffffffffffffffffffffffffffffffffffff16021790555060408201518160020155505060405180606001604052808481526020018373ffffffffffffffffffffffffffffffffffffffff16815260200182815250600560008581526020019081526020016000206000820151816000015560208201518160010160006101000a81548173ffffffffffffffffffffffffffffffffffffffff021916908373ffffffffffffffffffffffffffffffffffffffff1602179055506040820151816002015590505082600460008473ffffffffffffffffffffffffffffffffffffffff1673ffffffffffffffffffffffffffffffffffffffff16815260200190815260200160002081905550505050565b6000808390508073ffffffffffffffffffffffffffffffffffffffff16636352211e846040518263ffffffff1660e01b81526004016109989190610b08565b602060405180830381865afa1580156109b5573d6000803e3d6000fd5b505050506040513d601f19601f820116820180604052508101906109d991906110b1565b91505092915050565b60008390508073ffffffffffffffffffffffffffffffffffffffff166342842e0e610a0d8686610959565b610a178786610959565b866040518463ffffffff1660e01b8152600401610a3693929190611065565b600060405180830381600087803b158015610a5057600080fd5b505af1158015610a64573d6000803e3d6000fd5b505050508073ffffffffffffffffffffffffffffffffffffffff166342842e0e610a8e8685610959565b610a988787610959565b856040518463ffffffff1660e01b8152600401610ab793929190611065565b600060405180830381600087803b158015610ad157600080fd5b505af1158015610ae5573d6000803e3d6000fd5b5050505050505050565b6000819050919050565b610b0281610aef565b82525050565b6000602082019050610b1d6000830184610af9565b92915050565b600080fd5b600073ffffffffffffffffffffffffffffffffffffffff82169050919050565b6000610b5382610b28565b9050919050565b610b6381610b48565b8114610b6e57600080fd5b50565b600081359050610b8081610b5a565b92915050565b600060208284031215610b9c57610b9b610b23565b5b6000610baa84828501610b71565b91505092915050565b610bbc81610b48565b82525050565b6000602082019050610bd76000830184610bb3565b92915050565b610be681610aef565b8114610bf157600080fd5b50565b600081359050610c0381610bdd565b92915050565b60008060408385031215610c2057610c1f610b23565b5b6000610c2e85828601610b71565b9250506020610c3f85828601610bf4565b9150509250929050565b600060208284031215610c5f57610c5e610b23565b5b6000610c6d84828501610bf4565b91505092915050565b6000606082019050610c8b6000830186610af9565b610c986020830185610bb3565b610ca56040830184610af9565b949350505050565b600080600060608486031215610cc657610cc5610b23565b5b6000610cd486828701610b71565b9350506020610ce586828701610bf4565b9250506040610cf686828701610bf4565b9150509250925092565b600081519050919050565b600082825260208201905092915050565b60005b83811015610d3a578082015181840152602081019050610d1f565b83811115610d49576000848401525b50505050565b6000601f19601f8301169050919050565b6000610d6b82610d00565b610d758185610d0b565b9350610d85818560208601610d1c565b610d8e81610d4f565b840191505092915050565b60006020820190508181036000830152610db38184610d60565b905092915050565b6000604082019050610dd06000830185610bb3565b610ddd6020830184610af9565b9392505050565b7f496e76616c696420616464726573730000000000000000000000000000000000600082015250565b6000610e1a600f83610d0b565b9150610e2582610de4565b602082019050919050565b60006020820190508181036000830152610e4981610e0d565b9050919050565b7f496e76616c69643a2041646472657373206e6f7420617574686f726973656400600082015250565b6000610e86601f83610d0b565b9150610e9182610e50565b602082019050919050565b60006020820190508181036000830152610eb581610e79565b9050919050565b7f496e76616c69643a2073706563696669656420746f6b656e206964732061726560008201527f206e6f74206120706169722e0000000000000000000000000000000000000000602082015250565b6000610f18602c83610d0b565b9150610f2382610ebc565b604082019050919050565b60006020820190508181036000830152610f4781610f0b565b9050919050565b7f4e487b7100000000000000000000000000000000000000000000000000000000600052601160045260246000fd5b6000610f8882610aef565b9150610f9383610aef565b9250827fffffffffffffffffffffffffffffffffffffffffffffffffffffffffffffffff03821115610fc857610fc7610f4e565b5b828201905092915050565b7f496e76616c6964206f6e6c79206f776e65722063616e2061636365737320746860008201527f69732066756e6374696f6e000000000000000000000000000000000000000000602082015250565b600061102f602b83610d0b565b915061103a82610fd3565b604082019050919050565b6000602082019050818103600083015261105e81611022565b9050919050565b600060608201905061107a6000830186610bb3565b6110876020830185610bb3565b6110946040830184610af9565b949350505050565b6000815190506110ab81610b5a565b92915050565b6000602082840312156110c7576110c6610b23565b5b60006110d58482850161109c565b9150509291505056fea264697066735822122045cd06f6da36dd078e85c9f03deb1014fbb38d3fc4727b29e6dbe821dca9349464736f6c634300080d0033",
  "immutableReferences": {},
  "source": "// SPDX-License-Identifier: GPL-3.0\r\n\r\npragma solidity ^0.8.0;\r\n\r\nimport \"./Ownable.sol\";\r\nimport \"@openzeppelin/contracts/token/ERC721/IERC721.sol\";\r\nimport \"@openzeppelin/contracts/utils/introspection/IERC165.sol\";\r\nimport \"./Time.sol\";\r\n\r\ncontract TokenSwap is Ownable, TimeManager{\r\n    \r\n    struct User {\r\n        uint256 id;\r\n        address addr;\r\n        uint256 tokenId;\r\n    } \r\n    \r\n    uint256 userCount;\r\n\r\n    // Maps address to whether or not that address has authorised the token swap\r\n    mapping(address => bool) authorise;\r\n\r\n    // Maps a token id to another token id (pairing up token ids) to prepare for token swap\r\n    mapping(uint256 => uint256) tokenPair; \r\n\r\n    // Maps an address to user id\r\n    mapping(address => uint256) public addrToUserId;\r\n\r\n    // Maps user id to a user\r\n    mapping(uint256 => User) public idToUser;\r\n\r\n    // List of users \r\n    User[] internal users;\r\n    \r\n    modifier validateAddress(address _addr) {\r\n        require(_addr != address(0), \"Invalid address\");\r\n        _;\r\n    }\r\n\r\n    modifier isAuthorised(address _addr) {\r\n       require(authorise[_addr] == true, \"Invalid: Address not authorised\");\r\n       _;\r\n    }  \r\n\r\n    function getContractOwner() public view returns(address){\r\n        return getOwner();\r\n    }\r\n\r\n    function readString() public view returns(string memory) {\r\n        return \"Hiresh Bremanand\";\r\n    }\r\n\r\n    function returnNumber() public view returns(uint256){\r\n        return 10;\r\n    }\r\n\r\n    //Two token id's from the same contract address are paired up \r\n    function setPair(address _tokenAddr, uint256 _tokenId1, uint256 _tokenId2) public {\r\n        tokenPair[_tokenId1] = _tokenId2;\r\n    }\r\n    \r\n    //Msg.sender will authorise their token swap\r\n    function authoriseSwap(address _tokenAddr, uint256 _tokenId) public {\r\n        authorise[msg.sender] = true;\r\n        _addToStorage(userCount, msg.sender, _tokenId);\r\n        IERC721 contractAddr = IERC721(_tokenAddr);\r\n        contractAddr.approve(address(this), _tokenId);\r\n    }\r\n\r\n    function swapTokens(address _tokenAddr, uint256 _tokenId1, uint256 _tokenId2) public \r\n        validateAddress(_tokenAddr)\r\n        isAuthorised(_getOwner(_tokenAddr, _tokenId1))\r\n        isAuthorised(_getOwner(_tokenAddr, _tokenId2)) {\r\n        // Swap tokens (interact with their contracts)\r\n        require(tokenPair[_tokenId1] == _tokenId2 || tokenPair[_tokenId2] == _tokenId1, \"Invalid: specified token ids are not a pair.\");\r\n\r\n        //Interact with contract\r\n        _swapToken(_tokenAddr, _tokenId1, _tokenId2);\r\n    }\r\n\r\n    // Signs up person for the token swap\r\n    function _addToStorage(uint256 userCount, address _addr, uint256 _tokenId) internal {\r\n        userCount+=1;\r\n        users.push(User(userCount, _addr, _tokenId));\r\n        idToUser[userCount] = User(userCount, _addr, _tokenId);\r\n        addrToUserId[_addr] = userCount; \r\n    }\r\n\r\n    // Gets the owner of a token id \r\n    function _getOwner(address _tokenAddr, uint256 _tokenId) internal view returns(address){\r\n        IERC721 contractAddr = IERC721(_tokenAddr);\r\n        return contractAddr.ownerOf(_tokenId);\r\n    }\r\n\r\n    function _swapToken(address _tokenAddr, uint256 _tokenId1, uint256 _tokenId2) internal {\r\n        IERC721 contractAddr = IERC721(_tokenAddr);\r\n        contractAddr.safeTransferFrom(_getOwner(_tokenAddr, _tokenId1), _getOwner(_tokenAddr, _tokenId2), _tokenId1);\r\n        contractAddr.safeTransferFrom(_getOwner(_tokenAddr, _tokenId2), _getOwner(_tokenAddr, _tokenId1), _tokenId2);\r\n    }\r\n \r\n}\r\n\r\n",
  "sourcePath": "C:/Users/Toshiba/Documents/Hiresh Personal Work/Programming/blockchain/tokenSwap/contracts/ERC721_tokenSwap.sol",
  "compiler": {
    "name": "solc",
    "version": "0.8.13+commit.abaa5c0e.Emscripten.clang"
  },
  "schemaVersion": "3.3.4",
  "updatedAt": "2022-04-30T20:15:34.183Z",
  "networkType": "ethereum",
  "devdoc": {
    "kind": "dev",
    "methods": {},
    "version": 1
  },
  "userdoc": {
    "kind": "user",
    "methods": {},
    "version": 1
  }
}